{
  "contractName": "CAToken",
  "abi": [
    {
      "inputs": [
        {
          "internalType": "string",
          "name": "name",
          "type": "string"
        },
        {
          "internalType": "string",
          "name": "symbol",
          "type": "string"
        },
        {
          "internalType": "address",
          "name": "_server",
          "type": "address"
        }
      ],
      "stateMutability": "nonpayable",
      "type": "constructor"
    },
    {
      "anonymous": false,
      "inputs": [
        {
          "indexed": true,
          "internalType": "address",
          "name": "owner",
          "type": "address"
        },
        {
          "indexed": true,
          "internalType": "address",
          "name": "approved",
          "type": "address"
        },
        {
          "indexed": true,
          "internalType": "uint256",
          "name": "tokenId",
          "type": "uint256"
        }
      ],
      "name": "Approval",
      "type": "event"
    },
    {
      "anonymous": false,
      "inputs": [
        {
          "indexed": true,
          "internalType": "address",
          "name": "owner",
          "type": "address"
        },
        {
          "indexed": true,
          "internalType": "address",
          "name": "operator",
          "type": "address"
        },
        {
          "indexed": false,
          "internalType": "bool",
          "name": "approved",
          "type": "bool"
        }
      ],
      "name": "ApprovalForAll",
      "type": "event"
    },
    {
      "anonymous": false,
      "inputs": [
        {
          "indexed": true,
          "internalType": "address",
          "name": "previousOwner",
          "type": "address"
        },
        {
          "indexed": true,
          "internalType": "address",
          "name": "newOwner",
          "type": "address"
        }
      ],
      "name": "OwnershipTransferred",
      "type": "event"
    },
    {
      "anonymous": false,
      "inputs": [
        {
          "indexed": true,
          "internalType": "bytes32",
          "name": "role",
          "type": "bytes32"
        },
        {
          "indexed": true,
          "internalType": "bytes32",
          "name": "previousAdminRole",
          "type": "bytes32"
        },
        {
          "indexed": true,
          "internalType": "bytes32",
          "name": "newAdminRole",
          "type": "bytes32"
        }
      ],
      "name": "RoleAdminChanged",
      "type": "event"
    },
    {
      "anonymous": false,
      "inputs": [
        {
          "indexed": true,
          "internalType": "bytes32",
          "name": "role",
          "type": "bytes32"
        },
        {
          "indexed": true,
          "internalType": "address",
          "name": "account",
          "type": "address"
        },
        {
          "indexed": true,
          "internalType": "address",
          "name": "sender",
          "type": "address"
        }
      ],
      "name": "RoleGranted",
      "type": "event"
    },
    {
      "anonymous": false,
      "inputs": [
        {
          "indexed": true,
          "internalType": "bytes32",
          "name": "role",
          "type": "bytes32"
        },
        {
          "indexed": true,
          "internalType": "address",
          "name": "account",
          "type": "address"
        },
        {
          "indexed": true,
          "internalType": "address",
          "name": "sender",
          "type": "address"
        }
      ],
      "name": "RoleRevoked",
      "type": "event"
    },
    {
      "anonymous": false,
      "inputs": [
        {
          "indexed": true,
          "internalType": "address",
          "name": "from",
          "type": "address"
        },
        {
          "indexed": true,
          "internalType": "address",
          "name": "to",
          "type": "address"
        },
        {
          "indexed": true,
          "internalType": "uint256",
          "name": "tokenId",
          "type": "uint256"
        }
      ],
      "name": "Transfer",
      "type": "event"
    },
    {
      "inputs": [],
      "name": "DEFAULT_ADMIN_ROLE",
      "outputs": [
        {
          "internalType": "bytes32",
          "name": "",
          "type": "bytes32"
        }
      ],
      "stateMutability": "view",
      "type": "function"
    },
    {
      "inputs": [],
      "name": "SERVER_ROLE",
      "outputs": [
        {
          "internalType": "bytes32",
          "name": "",
          "type": "bytes32"
        }
      ],
      "stateMutability": "view",
      "type": "function"
    },
    {
      "inputs": [
        {
          "internalType": "address",
          "name": "to",
          "type": "address"
        },
        {
          "internalType": "uint256",
          "name": "tokenId",
          "type": "uint256"
        }
      ],
      "name": "approve",
      "outputs": [],
      "stateMutability": "nonpayable",
      "type": "function"
    },
    {
      "inputs": [
        {
          "internalType": "address",
          "name": "owner",
          "type": "address"
        }
      ],
      "name": "balanceOf",
      "outputs": [
        {
          "internalType": "uint256",
          "name": "",
          "type": "uint256"
        }
      ],
      "stateMutability": "view",
      "type": "function"
    },
    {
      "inputs": [
        {
          "internalType": "uint256",
          "name": "tokenId",
          "type": "uint256"
        }
      ],
      "name": "burn",
      "outputs": [],
      "stateMutability": "nonpayable",
      "type": "function"
    },
    {
      "inputs": [
        {
          "internalType": "uint256",
          "name": "tokenId",
          "type": "uint256"
        }
      ],
      "name": "getApproved",
      "outputs": [
        {
          "internalType": "address",
          "name": "",
          "type": "address"
        }
      ],
      "stateMutability": "view",
      "type": "function"
    },
    {
      "inputs": [
        {
          "internalType": "bytes32",
          "name": "role",
          "type": "bytes32"
        }
      ],
      "name": "getRoleAdmin",
      "outputs": [
        {
          "internalType": "bytes32",
          "name": "",
          "type": "bytes32"
        }
      ],
      "stateMutability": "view",
      "type": "function"
    },
    {
      "inputs": [
        {
          "internalType": "bytes32",
          "name": "role",
          "type": "bytes32"
        },
        {
          "internalType": "uint256",
          "name": "index",
          "type": "uint256"
        }
      ],
      "name": "getRoleMember",
      "outputs": [
        {
          "internalType": "address",
          "name": "",
          "type": "address"
        }
      ],
      "stateMutability": "view",
      "type": "function"
    },
    {
      "inputs": [
        {
          "internalType": "bytes32",
          "name": "role",
          "type": "bytes32"
        }
      ],
      "name": "getRoleMemberCount",
      "outputs": [
        {
          "internalType": "uint256",
          "name": "",
          "type": "uint256"
        }
      ],
      "stateMutability": "view",
      "type": "function"
    },
    {
      "inputs": [
        {
          "internalType": "bytes32",
          "name": "role",
          "type": "bytes32"
        },
        {
          "internalType": "address",
          "name": "account",
          "type": "address"
        }
      ],
      "name": "grantRole",
      "outputs": [],
      "stateMutability": "nonpayable",
      "type": "function"
    },
    {
      "inputs": [
        {
          "internalType": "bytes32",
          "name": "role",
          "type": "bytes32"
        },
        {
          "internalType": "address",
          "name": "account",
          "type": "address"
        }
      ],
      "name": "hasRole",
      "outputs": [
        {
          "internalType": "bool",
          "name": "",
          "type": "bool"
        }
      ],
      "stateMutability": "view",
      "type": "function"
    },
    {
      "inputs": [
        {
          "internalType": "address",
          "name": "owner",
          "type": "address"
        },
        {
          "internalType": "address",
          "name": "operator",
          "type": "address"
        }
      ],
      "name": "isApprovedForAll",
      "outputs": [
        {
          "internalType": "bool",
          "name": "",
          "type": "bool"
        }
      ],
      "stateMutability": "view",
      "type": "function"
    },
    {
      "inputs": [],
      "name": "name",
      "outputs": [
        {
          "internalType": "string",
          "name": "",
          "type": "string"
        }
      ],
      "stateMutability": "view",
      "type": "function"
    },
    {
      "inputs": [],
      "name": "owner",
      "outputs": [
        {
          "internalType": "address",
          "name": "",
          "type": "address"
        }
      ],
      "stateMutability": "view",
      "type": "function"
    },
    {
      "inputs": [
        {
          "internalType": "uint256",
          "name": "tokenId",
          "type": "uint256"
        }
      ],
      "name": "ownerOf",
      "outputs": [
        {
          "internalType": "address",
          "name": "",
          "type": "address"
        }
      ],
      "stateMutability": "view",
      "type": "function"
    },
    {
      "inputs": [],
      "name": "renounceOwnership",
      "outputs": [],
      "stateMutability": "nonpayable",
      "type": "function"
    },
    {
      "inputs": [
        {
          "internalType": "bytes32",
          "name": "role",
          "type": "bytes32"
        },
        {
          "internalType": "address",
          "name": "account",
          "type": "address"
        }
      ],
      "name": "renounceRole",
      "outputs": [],
      "stateMutability": "nonpayable",
      "type": "function"
    },
    {
      "inputs": [
        {
          "internalType": "bytes32",
          "name": "role",
          "type": "bytes32"
        },
        {
          "internalType": "address",
          "name": "account",
          "type": "address"
        }
      ],
      "name": "revokeRole",
      "outputs": [],
      "stateMutability": "nonpayable",
      "type": "function"
    },
    {
      "inputs": [
        {
          "internalType": "address",
          "name": "from",
          "type": "address"
        },
        {
          "internalType": "address",
          "name": "to",
          "type": "address"
        },
        {
          "internalType": "uint256",
          "name": "tokenId",
          "type": "uint256"
        }
      ],
      "name": "safeTransferFrom",
      "outputs": [],
      "stateMutability": "nonpayable",
      "type": "function"
    },
    {
      "inputs": [
        {
          "internalType": "address",
          "name": "from",
          "type": "address"
        },
        {
          "internalType": "address",
          "name": "to",
          "type": "address"
        },
        {
          "internalType": "uint256",
          "name": "tokenId",
          "type": "uint256"
        },
        {
          "internalType": "bytes",
          "name": "_data",
          "type": "bytes"
        }
      ],
      "name": "safeTransferFrom",
      "outputs": [],
      "stateMutability": "nonpayable",
      "type": "function"
    },
    {
      "inputs": [
        {
          "internalType": "address",
          "name": "operator",
          "type": "address"
        },
        {
          "internalType": "bool",
          "name": "approved",
          "type": "bool"
        }
      ],
      "name": "setApprovalForAll",
      "outputs": [],
      "stateMutability": "nonpayable",
      "type": "function"
    },
    {
      "inputs": [],
      "name": "symbol",
      "outputs": [
        {
          "internalType": "string",
          "name": "",
          "type": "string"
        }
      ],
      "stateMutability": "view",
      "type": "function"
    },
    {
      "inputs": [
        {
          "internalType": "uint256",
          "name": "tokenId",
          "type": "uint256"
        }
      ],
      "name": "tokenURI",
      "outputs": [
        {
          "internalType": "string",
          "name": "",
          "type": "string"
        }
      ],
      "stateMutability": "view",
      "type": "function"
    },
    {
      "inputs": [
        {
          "internalType": "address",
          "name": "from",
          "type": "address"
        },
        {
          "internalType": "address",
          "name": "to",
          "type": "address"
        },
        {
          "internalType": "uint256",
          "name": "tokenId",
          "type": "uint256"
        }
      ],
      "name": "transferFrom",
      "outputs": [],
      "stateMutability": "nonpayable",
      "type": "function"
    },
    {
      "inputs": [
        {
          "internalType": "address",
          "name": "newOwner",
          "type": "address"
        }
      ],
      "name": "transferOwnership",
      "outputs": [],
      "stateMutability": "nonpayable",
      "type": "function"
    },
    {
      "inputs": [
        {
          "internalType": "address",
          "name": "_to",
          "type": "address"
        }
      ],
      "name": "mint",
      "outputs": [],
      "stateMutability": "nonpayable",
      "type": "function"
    },
    {
      "inputs": [
        {
          "internalType": "uint256[]",
          "name": "deleteIds",
          "type": "uint256[]"
        }
      ],
      "name": "expiredContracts",
      "outputs": [],
      "stateMutability": "nonpayable",
      "type": "function"
    },
    {
      "inputs": [],
      "name": "selfDedstruct",
      "outputs": [],
      "stateMutability": "nonpayable",
      "type": "function"
    },
    {
      "inputs": [
        {
          "internalType": "bytes4",
          "name": "interfaceId",
          "type": "bytes4"
        }
      ],
      "name": "supportsInterface",
      "outputs": [
        {
          "internalType": "bool",
          "name": "",
          "type": "bool"
        }
      ],
      "stateMutability": "view",
      "type": "function"
    }
  ],
  "bytecode": "0x60806040523480156200001157600080fd5b506040516200498f3803806200498f8339818101604052810190620000379190620005d0565b82828160009080519060200190620000519291906200048b565b5080600190805190602001906200006a9291906200048b565b5050506200008d620000816200012d60201b60201c565b6200013560201b60201c565b620000b16000801b620000a56200012d60201b60201c565b620001fb60201b60201c565b620000e37fa8a7bc421f721cb936ea99efdad79237e6ee0b871a2a08cf648691f9584cdc7782620001fb60201b60201c565b620001247fa8a7bc421f721cb936ea99efdad79237e6ee0b871a2a08cf648691f9584cdc77620001186200012d60201b60201c565b620001fb60201b60201c565b5050506200083c565b600033905090565b6000600860009054906101000a900473ffffffffffffffffffffffffffffffffffffffff16905081600860006101000a81548173ffffffffffffffffffffffffffffffffffffffff021916908373ffffffffffffffffffffffffffffffffffffffff1602179055508173ffffffffffffffffffffffffffffffffffffffff168173ffffffffffffffffffffffffffffffffffffffff167f8be0079c531659141344cd1fd0a4f28419497f9722a3daafe3b4186f6b6457e060405160405180910390a35050565b6200021282826200024360201b6200131a1760201c565b6200023e81600760008581526020019081526020016000206200025960201b620013281790919060201c565b505050565b6200025582826200029160201b60201c565b5050565b600062000289836000018373ffffffffffffffffffffffffffffffffffffffff1660001b6200038360201b60201c565b905092915050565b620002a38282620003fd60201b60201c565b6200037f5760016006600084815260200190815260200160002060000160008373ffffffffffffffffffffffffffffffffffffffff1673ffffffffffffffffffffffffffffffffffffffff16815260200190815260200160002060006101000a81548160ff021916908315150217905550620003246200012d60201b60201c565b73ffffffffffffffffffffffffffffffffffffffff168173ffffffffffffffffffffffffffffffffffffffff16837f2f8788117e7eff1d82e926ec794901d17c78024a50270940304540a733656f0d60405160405180910390a45b5050565b60006200039783836200046860201b60201c565b620003f2578260000182908060018154018082558091505060019003906000526020600020016000909190919091505582600001805490508360010160008481526020019081526020016000208190555060019050620003f7565b600090505b92915050565b60006006600084815260200190815260200160002060000160008373ffffffffffffffffffffffffffffffffffffffff1673ffffffffffffffffffffffffffffffffffffffff16815260200190815260200160002060009054906101000a900460ff16905092915050565b600080836001016000848152602001908152602001600020541415905092915050565b828054620004999062000733565b90600052602060002090601f016020900481019282620004bd576000855562000509565b82601f10620004d857805160ff191683800117855562000509565b8280016001018555821562000509579182015b8281111562000508578251825591602001919060010190620004eb565b5b5090506200051891906200051c565b5090565b5b80821115620005375760008160009055506001016200051d565b5090565b6000620005526200054c8462000693565b6200066a565b90508281526020810184848401111562000571576200057062000802565b5b6200057e848285620006fd565b509392505050565b600081519050620005978162000822565b92915050565b600082601f830112620005b557620005b4620007fd565b5b8151620005c78482602086016200053b565b91505092915050565b600080600060608486031215620005ec57620005eb6200080c565b5b600084015167ffffffffffffffff8111156200060d576200060c62000807565b5b6200061b868287016200059d565b935050602084015167ffffffffffffffff8111156200063f576200063e62000807565b5b6200064d868287016200059d565b9250506040620006608682870162000586565b9150509250925092565b60006200067662000689565b905062000684828262000769565b919050565b6000604051905090565b600067ffffffffffffffff821115620006b157620006b0620007ce565b5b620006bc8262000811565b9050602081019050919050565b6000620006d682620006dd565b9050919050565b600073ffffffffffffffffffffffffffffffffffffffff82169050919050565b60005b838110156200071d57808201518184015260208101905062000700565b838111156200072d576000848401525b50505050565b600060028204905060018216806200074c57607f821691505b602082108114156200076357620007626200079f565b5b50919050565b620007748262000811565b810181811067ffffffffffffffff82111715620007965762000795620007ce565b5b80604052505050565b7f4e487b7100000000000000000000000000000000000000000000000000000000600052602260045260246000fd5b7f4e487b7100000000000000000000000000000000000000000000000000000000600052604160045260246000fd5b600080fd5b600080fd5b600080fd5b600080fd5b6000601f19601f8301169050919050565b6200082d81620006c9565b81146200083957600080fd5b50565b614143806200084c6000396000f3fe608060405234801561001057600080fd5b50600436106101cf5760003560e01c8063715018a611610104578063a22cb465116100a2578063d547741f11610071578063d547741f1461053c578063d6b8b9c914610558578063e985e9c514610562578063f2fde38b14610592576101cf565b8063a22cb465146104a4578063b88d4fde146104c0578063c87b56dd146104dc578063ca15c8731461050c576101cf565b806391d14854116100de57806391d148541461041c57806395d89b411461044c5780639aa94b2c1461046a578063a217fddf14610486576101cf565b8063715018a6146103c45780638da5cb5b146103ce5780639010d07c146103ec576101cf565b80632f2ff15d1161017157806342966c681161014b57806342966c681461032c5780636352211e146103485780636a6278421461037857806370a0823114610394576101cf565b80632f2ff15d146102d857806336568abe146102f457806342842e0e14610310576101cf565b8063095ea7b3116101ad578063095ea7b31461025257806318cf28341461026e57806323b872dd1461028c578063248a9ca3146102a8576101cf565b806301ffc9a7146101d457806306fdde0314610204578063081812fc14610222575b600080fd5b6101ee60048036038101906101e99190612d43565b6105ae565b6040516101fb9190613293565b60405180910390f35b61020c6105c0565b60405161021991906132c9565b60405180910390f35b61023c60048036038101906102379190612d9d565b610652565b604051610249919061322c565b60405180910390f35b61026c60048036038101906102679190612c0d565b6106d7565b005b6102766107ef565b60405161028391906132ae565b60405180910390f35b6102a660048036038101906102a19190612af7565b610813565b005b6102c260048036038101906102bd9190612c96565b610873565b6040516102cf91906132ae565b60405180910390f35b6102f260048036038101906102ed9190612cc3565b610893565b005b61030e60048036038101906103099190612cc3565b6108c7565b005b61032a60048036038101906103259190612af7565b6108fb565b005b61034660048036038101906103419190612d9d565b61091b565b005b610362600480360381019061035d9190612d9d565b610977565b60405161036f919061322c565b60405180910390f35b610392600480360381019061038d9190612a8a565b610a29565b005b6103ae60048036038101906103a99190612a8a565b610ab9565b6040516103bb919061358b565b60405180910390f35b6103cc610b71565b005b6103d6610bf9565b6040516103e3919061322c565b60405180910390f35b61040660048036038101906104019190612d03565b610c23565b604051610413919061322c565b60405180910390f35b61043660048036038101906104319190612cc3565b610c52565b6040516104439190613293565b60405180910390f35b610454610cbd565b60405161046191906132c9565b60405180910390f35b610484600480360381019061047f9190612c4d565b610d4f565b005b61048e610e04565b60405161049b91906132ae565b60405180910390f35b6104be60048036038101906104b99190612bcd565b610e0b565b005b6104da60048036038101906104d59190612b4a565b610f8c565b005b6104f660048036038101906104f19190612d9d565b610fee565b60405161050391906132c9565b60405180910390f35b61052660048036038101906105219190612c96565b611095565b604051610533919061358b565b60405180910390f35b61055660048036038101906105519190612cc3565b6110b9565b005b6105606110ed565b005b61057c60048036038101906105779190612ab7565b61118e565b6040516105899190613293565b60405180910390f35b6105ac60048036038101906105a79190612a8a565b611222565b005b60006105b982611358565b9050919050565b6060600080546105cf9061386a565b80601f01602080910402602001604051908101604052809291908181526020018280546105fb9061386a565b80156106485780601f1061061d57610100808354040283529160200191610648565b820191906000526020600020905b81548152906001019060200180831161062b57829003601f168201915b5050505050905090565b600061065d826113d2565b61069c576040517f08c379a00000000000000000000000000000000000000000000000000000000081526004016106939061346b565b60405180910390fd5b6004600083815260200190815260200160002060009054906101000a900473ffffffffffffffffffffffffffffffffffffffff169050919050565b60006106e282610977565b90508073ffffffffffffffffffffffffffffffffffffffff168373ffffffffffffffffffffffffffffffffffffffff161415610753576040517f08c379a000000000000000000000000000000000000000000000000000000000815260040161074a9061350b565b60405180910390fd5b8073ffffffffffffffffffffffffffffffffffffffff1661077261143e565b73ffffffffffffffffffffffffffffffffffffffff1614806107a157506107a08161079b61143e565b61118e565b5b6107e0576040517f08c379a00000000000000000000000000000000000000000000000000000000081526004016107d7906133eb565b60405180910390fd5b6107ea8383611446565b505050565b7fa8a7bc421f721cb936ea99efdad79237e6ee0b871a2a08cf648691f9584cdc7781565b61082461081e61143e565b826114ff565b610863576040517f08c379a000000000000000000000000000000000000000000000000000000000815260040161085a9061352b565b60405180910390fd5b61086e8383836115dd565b505050565b600060066000838152602001908152602001600020600101549050919050565b61089d8282611839565b6108c2816007600085815260200190815260200160002061132890919063ffffffff16565b505050565b6108d18282611862565b6108f681600760008581526020019081526020016000206118e590919063ffffffff16565b505050565b61091683838360405180602001604052806000815250610f8c565b505050565b61092c61092661143e565b826114ff565b61096b576040517f08c379a00000000000000000000000000000000000000000000000000000000081526004016109629061354b565b60405180910390fd5b61097481611915565b50565b6000806002600084815260200190815260200160002060009054906101000a900473ffffffffffffffffffffffffffffffffffffffff169050600073ffffffffffffffffffffffffffffffffffffffff168173ffffffffffffffffffffffffffffffffffffffff161415610a20576040517f08c379a0000000000000000000000000000000000000000000000000000000008152600401610a179061342b565b60405180910390fd5b80915050919050565b610a5a7fa8a7bc421f721cb936ea99efdad79237e6ee0b871a2a08cf648691f9584cdc77610a5561143e565b610c52565b610a99576040517f08c379a0000000000000000000000000000000000000000000000000000000008152600401610a90906132eb565b60405180910390fd5b610aac81610aa76009611a26565b611a34565b610ab66009611c02565b50565b60008073ffffffffffffffffffffffffffffffffffffffff168273ffffffffffffffffffffffffffffffffffffffff161415610b2a576040517f08c379a0000000000000000000000000000000000000000000000000000000008152600401610b219061340b565b60405180910390fd5b600360008373ffffffffffffffffffffffffffffffffffffffff1673ffffffffffffffffffffffffffffffffffffffff168152602001908152602001600020549050919050565b610b7961143e565b73ffffffffffffffffffffffffffffffffffffffff16610b97610bf9565b73ffffffffffffffffffffffffffffffffffffffff1614610bed576040517f08c379a0000000000000000000000000000000000000000000000000000000008152600401610be49061348b565b60405180910390fd5b610bf76000611c18565b565b6000600860009054906101000a900473ffffffffffffffffffffffffffffffffffffffff16905090565b6000610c4a8260076000868152602001908152602001600020611cde90919063ffffffff16565b905092915050565b60006006600084815260200190815260200160002060000160008373ffffffffffffffffffffffffffffffffffffffff1673ffffffffffffffffffffffffffffffffffffffff16815260200190815260200160002060009054906101000a900460ff16905092915050565b606060018054610ccc9061386a565b80601f0160208091040260200160405190810160405280929190818152602001828054610cf89061386a565b8015610d455780601f10610d1a57610100808354040283529160200191610d45565b820191906000526020600020905b815481529060010190602001808311610d2857829003601f168201915b5050505050905090565b610d807fa8a7bc421f721cb936ea99efdad79237e6ee0b871a2a08cf648691f9584cdc77610d7b61143e565b610c52565b610dbf576040517f08c379a0000000000000000000000000000000000000000000000000000000008152600401610db6906134ab565b60405180910390fd5b60005b81518111610e0057610ded828281518110610de057610ddf613a03565b5b6020026020010151611915565b8080610df8906138cd565b915050610dc2565b5050565b6000801b81565b610e1361143e565b73ffffffffffffffffffffffffffffffffffffffff168273ffffffffffffffffffffffffffffffffffffffff161415610e81576040517f08c379a0000000000000000000000000000000000000000000000000000000008152600401610e78906133ab565b60405180910390fd5b8060056000610e8e61143e565b73ffffffffffffffffffffffffffffffffffffffff1673ffffffffffffffffffffffffffffffffffffffff16815260200190815260200160002060008473ffffffffffffffffffffffffffffffffffffffff1673ffffffffffffffffffffffffffffffffffffffff16815260200190815260200160002060006101000a81548160ff0219169083151502179055508173ffffffffffffffffffffffffffffffffffffffff16610f3b61143e565b73ffffffffffffffffffffffffffffffffffffffff167f17307eab39ab6107e8899845ad3d59bd9653f200f220920489ca2b5937696c3183604051610f809190613293565b60405180910390a35050565b610f9d610f9761143e565b836114ff565b610fdc576040517f08c379a0000000000000000000000000000000000000000000000000000000008152600401610fd39061352b565b60405180910390fd5b610fe884848484611cf8565b50505050565b6060610ff9826113d2565b611038576040517f08c379a000000000000000000000000000000000000000000000000000000000815260040161102f906134eb565b60405180910390fd5b6000611042611d54565b90506000815111611062576040518060200160405280600081525061108d565b8061106c84611d6b565b60405160200161107d9291906131ce565b6040516020818303038152906040525b915050919050565b60006110b260076000848152602001908152602001600020611ecc565b9050919050565b6110c38282611ee1565b6110e881600760008581526020019081526020016000206118e590919063ffffffff16565b505050565b6110f561143e565b73ffffffffffffffffffffffffffffffffffffffff16611113610bf9565b73ffffffffffffffffffffffffffffffffffffffff1614611169576040517f08c379a00000000000000000000000000000000000000000000000000000000081526004016111609061348b565b60405180910390fd5b6000611173610bf9565b90508073ffffffffffffffffffffffffffffffffffffffff16ff5b6000600560008473ffffffffffffffffffffffffffffffffffffffff1673ffffffffffffffffffffffffffffffffffffffff16815260200190815260200160002060008373ffffffffffffffffffffffffffffffffffffffff1673ffffffffffffffffffffffffffffffffffffffff16815260200190815260200160002060009054906101000a900460ff16905092915050565b61122a61143e565b73ffffffffffffffffffffffffffffffffffffffff16611248610bf9565b73ffffffffffffffffffffffffffffffffffffffff161461129e576040517f08c379a00000000000000000000000000000000000000000000000000000000081526004016112959061348b565b60405180910390fd5b600073ffffffffffffffffffffffffffffffffffffffff168173ffffffffffffffffffffffffffffffffffffffff16141561130e576040517f08c379a00000000000000000000000000000000000000000000000000000000081526004016113059061334b565b60405180910390fd5b61131781611c18565b50565b6113248282611f0a565b5050565b6000611350836000018373ffffffffffffffffffffffffffffffffffffffff1660001b611feb565b905092915050565b60007f5a05180f000000000000000000000000000000000000000000000000000000007bffffffffffffffffffffffffffffffffffffffffffffffffffffffff1916827bffffffffffffffffffffffffffffffffffffffffffffffffffffffff191614806113cb57506113ca8261205b565b5b9050919050565b60008073ffffffffffffffffffffffffffffffffffffffff166002600084815260200190815260200160002060009054906101000a900473ffffffffffffffffffffffffffffffffffffffff1673ffffffffffffffffffffffffffffffffffffffff1614159050919050565b600033905090565b816004600083815260200190815260200160002060006101000a81548173ffffffffffffffffffffffffffffffffffffffff021916908373ffffffffffffffffffffffffffffffffffffffff160217905550808273ffffffffffffffffffffffffffffffffffffffff166114b983610977565b73ffffffffffffffffffffffffffffffffffffffff167f8c5be1e5ebec7d5bd14f71427d1e84f3dd0314c0f7b2291e5b200ac8c7c3b92560405160405180910390a45050565b600061150a826113d2565b611549576040517f08c379a0000000000000000000000000000000000000000000000000000000008152600401611540906133cb565b60405180910390fd5b600061155483610977565b90508073ffffffffffffffffffffffffffffffffffffffff168473ffffffffffffffffffffffffffffffffffffffff1614806115c357508373ffffffffffffffffffffffffffffffffffffffff166115ab84610652565b73ffffffffffffffffffffffffffffffffffffffff16145b806115d457506115d3818561118e565b5b91505092915050565b8273ffffffffffffffffffffffffffffffffffffffff166115fd82610977565b73ffffffffffffffffffffffffffffffffffffffff1614611653576040517f08c379a000000000000000000000000000000000000000000000000000000000815260040161164a906134cb565b60405180910390fd5b600073ffffffffffffffffffffffffffffffffffffffff168273ffffffffffffffffffffffffffffffffffffffff1614156116c3576040517f08c379a00000000000000000000000000000000000000000000000000000000081526004016116ba9061338b565b60405180910390fd5b6116ce8383836120d5565b6116d9600082611446565b6001600360008573ffffffffffffffffffffffffffffffffffffffff1673ffffffffffffffffffffffffffffffffffffffff1681526020019081526020016000206000828254611729919061374c565b925050819055506001600360008473ffffffffffffffffffffffffffffffffffffffff1673ffffffffffffffffffffffffffffffffffffffff1681526020019081526020016000206000828254611780919061366b565b92505081905550816002600083815260200190815260200160002060006101000a81548173ffffffffffffffffffffffffffffffffffffffff021916908373ffffffffffffffffffffffffffffffffffffffff160217905550808273ffffffffffffffffffffffffffffffffffffffff168473ffffffffffffffffffffffffffffffffffffffff167fddf252ad1be2c89b69c2b068fc378daa952ba7f163c4a11628f55a4df523b3ef60405160405180910390a4505050565b61184282610873565b6118538161184e61143e565b6120da565b61185d8383611f0a565b505050565b61186a61143e565b73ffffffffffffffffffffffffffffffffffffffff168173ffffffffffffffffffffffffffffffffffffffff16146118d7576040517f08c379a00000000000000000000000000000000000000000000000000000000081526004016118ce9061356b565b60405180910390fd5b6118e18282612177565b5050565b600061190d836000018373ffffffffffffffffffffffffffffffffffffffff1660001b612259565b905092915050565b600061192082610977565b905061192e816000846120d5565b611939600083611446565b6001600360008373ffffffffffffffffffffffffffffffffffffffff1673ffffffffffffffffffffffffffffffffffffffff1681526020019081526020016000206000828254611989919061374c565b925050819055506002600083815260200190815260200160002060006101000a81549073ffffffffffffffffffffffffffffffffffffffff021916905581600073ffffffffffffffffffffffffffffffffffffffff168273ffffffffffffffffffffffffffffffffffffffff167fddf252ad1be2c89b69c2b068fc378daa952ba7f163c4a11628f55a4df523b3ef60405160405180910390a45050565b600081600001549050919050565b600073ffffffffffffffffffffffffffffffffffffffff168273ffffffffffffffffffffffffffffffffffffffff161415611aa4576040517f08c379a0000000000000000000000000000000000000000000000000000000008152600401611a9b9061344b565b60405180910390fd5b611aad816113d2565b15611aed576040517f08c379a0000000000000000000000000000000000000000000000000000000008152600401611ae49061336b565b60405180910390fd5b611af9600083836120d5565b6001600360008473ffffffffffffffffffffffffffffffffffffffff1673ffffffffffffffffffffffffffffffffffffffff1681526020019081526020016000206000828254611b49919061366b565b92505081905550816002600083815260200190815260200160002060006101000a81548173ffffffffffffffffffffffffffffffffffffffff021916908373ffffffffffffffffffffffffffffffffffffffff160217905550808273ffffffffffffffffffffffffffffffffffffffff16600073ffffffffffffffffffffffffffffffffffffffff167fddf252ad1be2c89b69c2b068fc378daa952ba7f163c4a11628f55a4df523b3ef60405160405180910390a45050565b6001816000016000828254019250508190555050565b6000600860009054906101000a900473ffffffffffffffffffffffffffffffffffffffff16905081600860006101000a81548173ffffffffffffffffffffffffffffffffffffffff021916908373ffffffffffffffffffffffffffffffffffffffff1602179055508173ffffffffffffffffffffffffffffffffffffffff168173ffffffffffffffffffffffffffffffffffffffff167f8be0079c531659141344cd1fd0a4f28419497f9722a3daafe3b4186f6b6457e060405160405180910390a35050565b6000611ced836000018361236d565b60001c905092915050565b611d038484846115dd565b611d0f84848484612398565b611d4e576040517f08c379a0000000000000000000000000000000000000000000000000000000008152600401611d459061332b565b60405180910390fd5b50505050565b606060405180602001604052806000815250905090565b60606000821415611db3576040518060400160405280600181526020017f30000000000000000000000000000000000000000000000000000000000000008152509050611ec7565b600082905060005b60008214611de5578080611dce906138cd565b915050600a82611dde91906136c1565b9150611dbb565b60008167ffffffffffffffff811115611e0157611e00613a32565b5b6040519080825280601f01601f191660200182016040528015611e335781602001600182028036833780820191505090505b5090505b60008514611ec057600182611e4c919061374c565b9150600a85611e5b9190613916565b6030611e67919061366b565b60f81b818381518110611e7d57611e7c613a03565b5b60200101907effffffffffffffffffffffffffffffffffffffffffffffffffffffffffffff1916908160001a905350600a85611eb991906136c1565b9450611e37565b8093505050505b919050565b6000611eda8260000161252f565b9050919050565b611eea82610873565b611efb81611ef661143e565b6120da565b611f058383612177565b505050565b611f148282610c52565b611fe75760016006600084815260200190815260200160002060000160008373ffffffffffffffffffffffffffffffffffffffff1673ffffffffffffffffffffffffffffffffffffffff16815260200190815260200160002060006101000a81548160ff021916908315150217905550611f8c61143e565b73ffffffffffffffffffffffffffffffffffffffff168173ffffffffffffffffffffffffffffffffffffffff16837f2f8788117e7eff1d82e926ec794901d17c78024a50270940304540a733656f0d60405160405180910390a45b5050565b6000611ff78383612540565b612050578260000182908060018154018082558091505060019003906000526020600020016000909190919091505582600001805490508360010160008481526020019081526020016000208190555060019050612055565b600090505b92915050565b60007f7965db0b000000000000000000000000000000000000000000000000000000007bffffffffffffffffffffffffffffffffffffffffffffffffffffffff1916827bffffffffffffffffffffffffffffffffffffffffffffffffffffffff191614806120ce57506120cd82612563565b5b9050919050565b505050565b6120e48282610c52565b612173576121098173ffffffffffffffffffffffffffffffffffffffff166014612645565b6121178360001c6020612645565b6040516020016121289291906131f2565b6040516020818303038152906040526040517f08c379a000000000000000000000000000000000000000000000000000000000815260040161216a91906132c9565b60405180910390fd5b5050565b6121818282610c52565b156122555760006006600084815260200190815260200160002060000160008373ffffffffffffffffffffffffffffffffffffffff1673ffffffffffffffffffffffffffffffffffffffff16815260200190815260200160002060006101000a81548160ff0219169083151502179055506121fa61143e565b73ffffffffffffffffffffffffffffffffffffffff168173ffffffffffffffffffffffffffffffffffffffff16837ff6391f5c32d9c69d2a47ea670b442974b53935d1edc7fd64eb21e047a839171b60405160405180910390a45b5050565b6000808360010160008481526020019081526020016000205490506000811461236157600060018261228b919061374c565b90506000600186600001805490506122a3919061374c565b90508181146123125760008660000182815481106122c4576122c3613a03565b5b90600052602060002001549050808760000184815481106122e8576122e7613a03565b5b90600052602060002001819055508387600101600083815260200190815260200160002081905550505b85600001805480612326576123256139d4565b5b600190038181906000526020600020016000905590558560010160008681526020019081526020016000206000905560019350505050612367565b60009150505b92915050565b600082600001828154811061238557612384613a03565b5b9060005260206000200154905092915050565b60006123b98473ffffffffffffffffffffffffffffffffffffffff16612881565b15612522578373ffffffffffffffffffffffffffffffffffffffff1663150b7a026123e261143e565b8786866040518563ffffffff1660e01b81526004016124049493929190613247565b602060405180830381600087803b15801561241e57600080fd5b505af192505050801561244f57506040513d601f19601f8201168201806040525081019061244c9190612d70565b60015b6124d2573d806000811461247f576040519150601f19603f3d011682016040523d82523d6000602084013e612484565b606091505b506000815114156124ca576040517f08c379a00000000000000000000000000000000000000000000000000000000081526004016124c19061332b565b60405180910390fd5b805181602001fd5b63150b7a0260e01b7bffffffffffffffffffffffffffffffffffffffffffffffffffffffff1916817bffffffffffffffffffffffffffffffffffffffffffffffffffffffff191614915050612527565b600190505b949350505050565b600081600001805490509050919050565b600080836001016000848152602001908152602001600020541415905092915050565b60007f80ac58cd000000000000000000000000000000000000000000000000000000007bffffffffffffffffffffffffffffffffffffffffffffffffffffffff1916827bffffffffffffffffffffffffffffffffffffffffffffffffffffffff1916148061262e57507f5b5e139f000000000000000000000000000000000000000000000000000000007bffffffffffffffffffffffffffffffffffffffffffffffffffffffff1916827bffffffffffffffffffffffffffffffffffffffffffffffffffffffff1916145b8061263e575061263d82612894565b5b9050919050565b60606000600283600261265891906136f2565b612662919061366b565b67ffffffffffffffff81111561267b5761267a613a32565b5b6040519080825280601f01601f1916602001820160405280156126ad5781602001600182028036833780820191505090505b5090507f3000000000000000000000000000000000000000000000000000000000000000816000815181106126e5576126e4613a03565b5b60200101907effffffffffffffffffffffffffffffffffffffffffffffffffffffffffffff1916908160001a9053507f78000000000000000000000000000000000000000000000000000000000000008160018151811061274957612748613a03565b5b60200101907effffffffffffffffffffffffffffffffffffffffffffffffffffffffffffff1916908160001a9053506000600184600261278991906136f2565b612793919061366b565b90505b6001811115612833577f3031323334353637383961626364656600000000000000000000000000000000600f8616601081106127d5576127d4613a03565b5b1a60f81b8282815181106127ec576127eb613a03565b5b60200101907effffffffffffffffffffffffffffffffffffffffffffffffffffffffffffff1916908160001a905350600485901c94508061282c90613840565b9050612796565b5060008414612877576040517f08c379a000000000000000000000000000000000000000000000000000000000815260040161286e9061330b565b60405180910390fd5b8091505092915050565b600080823b905060008111915050919050565b60007f01ffc9a7000000000000000000000000000000000000000000000000000000007bffffffffffffffffffffffffffffffffffffffffffffffffffffffff1916827bffffffffffffffffffffffffffffffffffffffffffffffffffffffff1916149050919050565b600061291161290c846135cb565b6135a6565b9050808382526020820190508285602086028201111561293457612933613a66565b5b60005b85811015612964578161294a8882612a75565b845260208401935060208301925050600181019050612937565b5050509392505050565b600061298161297c846135f7565b6135a6565b90508281526020810184848401111561299d5761299c613a6b565b5b6129a88482856137fe565b509392505050565b6000813590506129bf8161409a565b92915050565b600082601f8301126129da576129d9613a61565b5b81356129ea8482602086016128fe565b91505092915050565b600081359050612a02816140b1565b92915050565b600081359050612a17816140c8565b92915050565b600081359050612a2c816140df565b92915050565b600081519050612a41816140df565b92915050565b600082601f830112612a5c57612a5b613a61565b5b8135612a6c84826020860161296e565b91505092915050565b600081359050612a84816140f6565b92915050565b600060208284031215612aa057612a9f613a75565b5b6000612aae848285016129b0565b91505092915050565b60008060408385031215612ace57612acd613a75565b5b6000612adc858286016129b0565b9250506020612aed858286016129b0565b9150509250929050565b600080600060608486031215612b1057612b0f613a75565b5b6000612b1e868287016129b0565b9350506020612b2f868287016129b0565b9250506040612b4086828701612a75565b9150509250925092565b60008060008060808587031215612b6457612b63613a75565b5b6000612b72878288016129b0565b9450506020612b83878288016129b0565b9350506040612b9487828801612a75565b925050606085013567ffffffffffffffff811115612bb557612bb4613a70565b5b612bc187828801612a47565b91505092959194509250565b60008060408385031215612be457612be3613a75565b5b6000612bf2858286016129b0565b9250506020612c03858286016129f3565b9150509250929050565b60008060408385031215612c2457612c23613a75565b5b6000612c32858286016129b0565b9250506020612c4385828601612a75565b9150509250929050565b600060208284031215612c6357612c62613a75565b5b600082013567ffffffffffffffff811115612c8157612c80613a70565b5b612c8d848285016129c5565b91505092915050565b600060208284031215612cac57612cab613a75565b5b6000612cba84828501612a08565b91505092915050565b60008060408385031215612cda57612cd9613a75565b5b6000612ce885828601612a08565b9250506020612cf9858286016129b0565b9150509250929050565b60008060408385031215612d1a57612d19613a75565b5b6000612d2885828601612a08565b9250506020612d3985828601612a75565b9150509250929050565b600060208284031215612d5957612d58613a75565b5b6000612d6784828501612a1d565b91505092915050565b600060208284031215612d8657612d85613a75565b5b6000612d9484828501612a32565b91505092915050565b600060208284031215612db357612db2613a75565b5b6000612dc184828501612a75565b91505092915050565b612dd381613780565b82525050565b612de281613792565b82525050565b612df18161379e565b82525050565b6000612e0282613628565b612e0c818561363e565b9350612e1c81856020860161380d565b612e2581613a7a565b840191505092915050565b6000612e3b82613633565b612e45818561364f565b9350612e5581856020860161380d565b612e5e81613a7a565b840191505092915050565b6000612e7482613633565b612e7e8185613660565b9350612e8e81856020860161380d565b80840191505092915050565b6000612ea7602d8361364f565b9150612eb282613a8b565b604082019050919050565b6000612eca60208361364f565b9150612ed582613ada565b602082019050919050565b6000612eed60328361364f565b9150612ef882613b03565b604082019050919050565b6000612f1060268361364f565b9150612f1b82613b52565b604082019050919050565b6000612f33601c8361364f565b9150612f3e82613ba1565b602082019050919050565b6000612f5660248361364f565b9150612f6182613bca565b604082019050919050565b6000612f7960198361364f565b9150612f8482613c19565b602082019050919050565b6000612f9c602c8361364f565b9150612fa782613c42565b604082019050919050565b6000612fbf60388361364f565b9150612fca82613c91565b604082019050919050565b6000612fe2602a8361364f565b9150612fed82613ce0565b604082019050919050565b600061300560298361364f565b915061301082613d2f565b604082019050919050565b600061302860208361364f565b915061303382613d7e565b602082019050919050565b600061304b602c8361364f565b915061305682613da7565b604082019050919050565b600061306e60208361364f565b915061307982613df6565b602082019050919050565b6000613091602e8361364f565b915061309c82613e1f565b604082019050919050565b60006130b460298361364f565b91506130bf82613e6e565b604082019050919050565b60006130d7602f8361364f565b91506130e282613ebd565b604082019050919050565b60006130fa60218361364f565b915061310582613f0c565b604082019050919050565b600061311d60318361364f565b915061312882613f5b565b604082019050919050565b6000613140601783613660565b915061314b82613faa565b601782019050919050565b600061316360308361364f565b915061316e82613fd3565b604082019050919050565b6000613186601183613660565b915061319182614022565b601182019050919050565b60006131a9602f8361364f565b91506131b48261404b565b604082019050919050565b6131c8816137f4565b82525050565b60006131da8285612e69565b91506131e68284612e69565b91508190509392505050565b60006131fd82613133565b91506132098285612e69565b915061321482613179565b91506132208284612e69565b91508190509392505050565b60006020820190506132416000830184612dca565b92915050565b600060808201905061325c6000830187612dca565b6132696020830186612dca565b61327660408301856131bf565b81810360608301526132888184612df7565b905095945050505050565b60006020820190506132a86000830184612dd9565b92915050565b60006020820190506132c36000830184612de8565b92915050565b600060208201905081810360008301526132e38184612e30565b905092915050565b6000602082019050818103600083015261330481612e9a565b9050919050565b6000602082019050818103600083015261332481612ebd565b9050919050565b6000602082019050818103600083015261334481612ee0565b9050919050565b6000602082019050818103600083015261336481612f03565b9050919050565b6000602082019050818103600083015261338481612f26565b9050919050565b600060208201905081810360008301526133a481612f49565b9050919050565b600060208201905081810360008301526133c481612f6c565b9050919050565b600060208201905081810360008301526133e481612f8f565b9050919050565b6000602082019050818103600083015261340481612fb2565b9050919050565b6000602082019050818103600083015261342481612fd5565b9050919050565b6000602082019050818103600083015261344481612ff8565b9050919050565b600060208201905081810360008301526134648161301b565b9050919050565b600060208201905081810360008301526134848161303e565b9050919050565b600060208201905081810360008301526134a481613061565b9050919050565b600060208201905081810360008301526134c481613084565b9050919050565b600060208201905081810360008301526134e4816130a7565b9050919050565b60006020820190508181036000830152613504816130ca565b9050919050565b60006020820190508181036000830152613524816130ed565b9050919050565b6000602082019050818103600083015261354481613110565b9050919050565b6000602082019050818103600083015261356481613156565b9050919050565b600060208201905081810360008301526135848161319c565b9050919050565b60006020820190506135a060008301846131bf565b92915050565b60006135b06135c1565b90506135bc828261389c565b919050565b6000604051905090565b600067ffffffffffffffff8211156135e6576135e5613a32565b5b602082029050602081019050919050565b600067ffffffffffffffff82111561361257613611613a32565b5b61361b82613a7a565b9050602081019050919050565b600081519050919050565b600081519050919050565b600082825260208201905092915050565b600082825260208201905092915050565b600081905092915050565b6000613676826137f4565b9150613681836137f4565b9250827fffffffffffffffffffffffffffffffffffffffffffffffffffffffffffffffff038211156136b6576136b5613947565b5b828201905092915050565b60006136cc826137f4565b91506136d7836137f4565b9250826136e7576136e6613976565b5b828204905092915050565b60006136fd826137f4565b9150613708836137f4565b9250817fffffffffffffffffffffffffffffffffffffffffffffffffffffffffffffffff048311821515161561374157613740613947565b5b828202905092915050565b6000613757826137f4565b9150613762836137f4565b92508282101561377557613774613947565b5b828203905092915050565b600061378b826137d4565b9050919050565b60008115159050919050565b6000819050919050565b60007fffffffff0000000000000000000000000000000000000000000000000000000082169050919050565b600073ffffffffffffffffffffffffffffffffffffffff82169050919050565b6000819050919050565b82818337600083830152505050565b60005b8381101561382b578082015181840152602081019050613810565b8381111561383a576000848401525b50505050565b600061384b826137f4565b9150600082141561385f5761385e613947565b5b600182039050919050565b6000600282049050600182168061388257607f821691505b60208210811415613896576138956139a5565b5b50919050565b6138a582613a7a565b810181811067ffffffffffffffff821117156138c4576138c3613a32565b5b80604052505050565b60006138d8826137f4565b91507fffffffffffffffffffffffffffffffffffffffffffffffffffffffffffffffff82141561390b5761390a613947565b5b600182019050919050565b6000613921826137f4565b915061392c836137f4565b92508261393c5761393b613976565b5b828206905092915050565b7f4e487b7100000000000000000000000000000000000000000000000000000000600052601160045260246000fd5b7f4e487b7100000000000000000000000000000000000000000000000000000000600052601260045260246000fd5b7f4e487b7100000000000000000000000000000000000000000000000000000000600052602260045260246000fd5b7f4e487b7100000000000000000000000000000000000000000000000000000000600052603160045260246000fd5b7f4e487b7100000000000000000000000000000000000000000000000000000000600052603260045260246000fd5b7f4e487b7100000000000000000000000000000000000000000000000000000000600052604160045260246000fd5b600080fd5b600080fd5b600080fd5b600080fd5b600080fd5b6000601f19601f8301169050919050565b7f796f7520646f6e277420686176652061636365737320746f20746865206d696e60008201527f74696e672066756e6374696f6e00000000000000000000000000000000000000602082015250565b7f537472696e67733a20686578206c656e67746820696e73756666696369656e74600082015250565b7f4552433732313a207472616e7366657220746f206e6f6e20455243373231526560008201527f63656976657220696d706c656d656e7465720000000000000000000000000000602082015250565b7f4f776e61626c653a206e6577206f776e657220697320746865207a65726f206160008201527f6464726573730000000000000000000000000000000000000000000000000000602082015250565b7f4552433732313a20746f6b656e20616c7265616479206d696e74656400000000600082015250565b7f4552433732313a207472616e7366657220746f20746865207a65726f2061646460008201527f7265737300000000000000000000000000000000000000000000000000000000602082015250565b7f4552433732313a20617070726f766520746f2063616c6c657200000000000000600082015250565b7f4552433732313a206f70657261746f7220717565727920666f72206e6f6e657860008201527f697374656e7420746f6b656e0000000000000000000000000000000000000000602082015250565b7f4552433732313a20617070726f76652063616c6c6572206973206e6f74206f7760008201527f6e6572206e6f7220617070726f76656420666f7220616c6c0000000000000000602082015250565b7f4552433732313a2062616c616e636520717565727920666f7220746865207a6560008201527f726f206164647265737300000000000000000000000000000000000000000000602082015250565b7f4552433732313a206f776e657220717565727920666f72206e6f6e657869737460008201527f656e7420746f6b656e0000000000000000000000000000000000000000000000602082015250565b7f4552433732313a206d696e7420746f20746865207a65726f2061646472657373600082015250565b7f4552433732313a20617070726f76656420717565727920666f72206e6f6e657860008201527f697374656e7420746f6b656e0000000000000000000000000000000000000000602082015250565b7f4f776e61626c653a2063616c6c6572206973206e6f7420746865206f776e6572600082015250565b7f746869732069732061776b776172642c20796f75277265206e6f7420616c6c6f60008201527f77656420746f20646f2074686174000000000000000000000000000000000000602082015250565b7f4552433732313a207472616e73666572206f6620746f6b656e2074686174206960008201527f73206e6f74206f776e0000000000000000000000000000000000000000000000602082015250565b7f4552433732314d657461646174613a2055524920717565727920666f72206e6f60008201527f6e6578697374656e7420746f6b656e0000000000000000000000000000000000602082015250565b7f4552433732313a20617070726f76616c20746f2063757272656e74206f776e6560008201527f7200000000000000000000000000000000000000000000000000000000000000602082015250565b7f4552433732313a207472616e736665722063616c6c6572206973206e6f74206f60008201527f776e6572206e6f7220617070726f766564000000000000000000000000000000602082015250565b7f416363657373436f6e74726f6c3a206163636f756e7420000000000000000000600082015250565b7f4552433732314275726e61626c653a2063616c6c6572206973206e6f74206f7760008201527f6e6572206e6f7220617070726f76656400000000000000000000000000000000602082015250565b7f206973206d697373696e6720726f6c6520000000000000000000000000000000600082015250565b7f416363657373436f6e74726f6c3a2063616e206f6e6c792072656e6f756e636560008201527f20726f6c657320666f722073656c660000000000000000000000000000000000602082015250565b6140a381613780565b81146140ae57600080fd5b50565b6140ba81613792565b81146140c557600080fd5b50565b6140d18161379e565b81146140dc57600080fd5b50565b6140e8816137a8565b81146140f357600080fd5b50565b6140ff816137f4565b811461410a57600080fd5b5056fea2646970667358221220b7d1595eda112af71308471b129c6f0503ca222ee92848ddd8c666fd35c0443964736f6c63430008060033",
  "immutableReferences": {},
  "source": "pragma solidity 0.8.6;\r\n\r\nimport \"@openzeppelin/contracts/token/ERC721/ERC721.sol\";\r\nimport \"@openzeppelin/contracts/access/Ownable.sol\";\r\nimport \"@openzeppelin/contracts/utils/Counters.sol\";\r\nimport \"@openzeppelin/contracts/token/ERC721/extensions/ERC721Burnable.sol\";\r\nimport \"@openzeppelin/contracts/access/AccessControlEnumerable.sol\";\r\n\r\ncontract CAToken is Context, ERC721Burnable, AccessControlEnumerable, Ownable {\r\n    using Counters for Counters.Counter;\r\n    //expiring token count\r\n    //might not need this\r\n    bytes32 public constant SERVER_ROLE = keccak256(\"SERVER_ROLE\");\r\n    //use counters to make unique tokenID\r\n\r\n    Counters.Counter private _tokenIdTracker;\r\n\r\n    constructor(\r\n        string memory name,\r\n        string memory symbol,\r\n        address _server\r\n    ) ERC721(name, symbol) Ownable() {\r\n        //give the owner admin role\r\n        _setupRole(DEFAULT_ADMIN_ROLE, _msgSender());\r\n        //set up server role\r\n        _setupRole(SERVER_ROLE, _server);\r\n        //lets give owner server role too\r\n        _setupRole(SERVER_ROLE, _msgSender());\r\n    }\r\n\r\n    function mint(address _to) public {\r\n        //\r\n        require(\r\n            hasRole(SERVER_ROLE, _msgSender()),\r\n            \"you don't have access to the minting function\"\r\n        );\r\n        //require unique tokenID\r\n        _mint(_to, _tokenIdTracker.current());\r\n        _tokenIdTracker.increment();\r\n    }\r\n\r\n    //delete expired contracts\r\n    //\r\n    function expiredContracts(uint256[] memory deleteIds) public {\r\n        //only allow the server to do this\r\n        require(\r\n            hasRole(SERVER_ROLE, _msgSender()),\r\n            \"this is awkward, you're not allowed to do that\"\r\n        );\r\n        //batch delete the tokens\r\n        for (uint256 i = 0; i <= deleteIds.length; i++) {\r\n            _burn(deleteIds[i]);\r\n        }\r\n        //should I deleteIds?\r\n    }\r\n\r\n    function selfDedstruct() public onlyOwner {\r\n        address payable owner = payable(owner());\r\n        selfdestruct(owner);\r\n    }\r\n\r\n    function supportsInterface(bytes4 interfaceId)\r\n        public\r\n        view\r\n        virtual\r\n        override(AccessControlEnumerable, ERC721)\r\n        returns (bool)\r\n    {\r\n        return super.supportsInterface(interfaceId);\r\n    }\r\n}\r\n",
  "sourcePath": "C:\\Users\\ZJLin\\Documents\\nft\\contracts\\CAToken.sol",
  "compiler": {
    "name": "solc",
    "version": "0.8.6+commit.11564f7e.Emscripten.clang"
  },
  "schemaVersion": "3.4.2",
  "updatedAt": "2021-08-12T00:50:07.619Z",
  "devdoc": {
    "kind": "dev",
    "methods": {
      "approve(address,uint256)": {
        "details": "See {IERC721-approve}."
      },
      "balanceOf(address)": {
        "details": "See {IERC721-balanceOf}."
      },
      "burn(uint256)": {
        "details": "Burns `tokenId`. See {ERC721-_burn}. Requirements: - The caller must own `tokenId` or be an approved operator."
      },
      "getApproved(uint256)": {
        "details": "See {IERC721-getApproved}."
      },
      "getRoleAdmin(bytes32)": {
        "details": "Returns the admin role that controls `role`. See {grantRole} and {revokeRole}. To change a role's admin, use {_setRoleAdmin}."
      },
      "getRoleMember(bytes32,uint256)": {
        "details": "Returns one of the accounts that have `role`. `index` must be a value between 0 and {getRoleMemberCount}, non-inclusive. Role bearers are not sorted in any particular way, and their ordering may change at any point. WARNING: When using {getRoleMember} and {getRoleMemberCount}, make sure you perform all queries on the same block. See the following https://forum.openzeppelin.com/t/iterating-over-elements-on-enumerableset-in-openzeppelin-contracts/2296[forum post] for more information."
      },
      "getRoleMemberCount(bytes32)": {
        "details": "Returns the number of accounts that have `role`. Can be used together with {getRoleMember} to enumerate all bearers of a role."
      },
      "grantRole(bytes32,address)": {
        "details": "Overload {grantRole} to track enumerable memberships"
      },
      "hasRole(bytes32,address)": {
        "details": "Returns `true` if `account` has been granted `role`."
      },
      "isApprovedForAll(address,address)": {
        "details": "See {IERC721-isApprovedForAll}."
      },
      "name()": {
        "details": "See {IERC721Metadata-name}."
      },
      "owner()": {
        "details": "Returns the address of the current owner."
      },
      "ownerOf(uint256)": {
        "details": "See {IERC721-ownerOf}."
      },
      "renounceOwnership()": {
        "details": "Leaves the contract without owner. It will not be possible to call `onlyOwner` functions anymore. Can only be called by the current owner. NOTE: Renouncing ownership will leave the contract without an owner, thereby removing any functionality that is only available to the owner."
      },
      "renounceRole(bytes32,address)": {
        "details": "Overload {renounceRole} to track enumerable memberships"
      },
      "revokeRole(bytes32,address)": {
        "details": "Overload {revokeRole} to track enumerable memberships"
      },
      "safeTransferFrom(address,address,uint256)": {
        "details": "See {IERC721-safeTransferFrom}."
      },
      "safeTransferFrom(address,address,uint256,bytes)": {
        "details": "See {IERC721-safeTransferFrom}."
      },
      "setApprovalForAll(address,bool)": {
        "details": "See {IERC721-setApprovalForAll}."
      },
      "symbol()": {
        "details": "See {IERC721Metadata-symbol}."
      },
      "tokenURI(uint256)": {
        "details": "See {IERC721Metadata-tokenURI}."
      },
      "transferFrom(address,address,uint256)": {
        "details": "See {IERC721-transferFrom}."
      },
      "transferOwnership(address)": {
        "details": "Transfers ownership of the contract to a new account (`newOwner`). Can only be called by the current owner."
      }
    },
    "version": 1
  },
  "userdoc": {
    "kind": "user",
    "methods": {},
    "version": 1
  }
}